{
    "_format": "hh-sol-artifact-1",
    "contractName": "addContent",
    "sourceName": "contracts/addContent.sol",
    "abi": [
        {
            "inputs": [
                {
                    "internalType": "address",
                    "name": "",
                    "type": "address"
                },
                {
                    "internalType": "uint256",
                    "name": "",
                    "type": "uint256"
                }
            ],
            "name": "Reports",
            "outputs": [
                {
                    "internalType": "string",
                    "name": "",
                    "type": "string"
                }
            ],
            "stateMutability": "view",
            "type": "function"
        },
        {
            "inputs": [
                {
                    "internalType": "address",
                    "name": "_addr",
                    "type": "address"
                },
                {
                    "internalType": "string",
                    "name": "_IpfsHash",
                    "type": "string"
                }
            ],
            "name": "addReports",
            "outputs": [],
            "stateMutability": "nonpayable",
            "type": "function"
        },
        {
            "inputs": [
                {
                    "internalType": "address",
                    "name": "_addr",
                    "type": "address"
                }
            ],
            "name": "getAllReports",
            "outputs": [
                {
                    "internalType": "string[]",
                    "name": "",
                    "type": "string[]"
                }
            ],
            "stateMutability": "view",
            "type": "function"
        },
        {
            "inputs": [
                {
                    "internalType": "address",
                    "name": "",
                    "type": "address"
                }
            ],
            "name": "hasReports",
            "outputs": [
                {
                    "internalType": "bool",
                    "name": "",
                    "type": "bool"
                }
            ],
            "stateMutability": "view",
            "type": "function"
        }
    ],
    "bytecode": "0x608060405234801561001057600080fd5b50610bdc806100206000396000f3fe608060405234801561001057600080fd5b506004361061004c5760003560e01c80631819a83f14610051578063486e0c7d14610081578063585cce16146100b1578063a455285b146100cd575b600080fd5b61006b600480360381019061006691906104b4565b6100fd565b6040516100789190610584565b60405180910390f35b61009b600480360381019061009691906105a6565b6101b6565b6040516100a891906106df565b60405180910390f35b6100cb60048036038101906100c69190610836565b6102ce565b005b6100e760048036038101906100e291906105a6565b6103ec565b6040516100f491906108ad565b60405180910390f35b6001602052816000526040600020818154811061011957600080fd5b90600052602060002001600091509150508054610135906108f7565b80601f0160208091040260200160405190810160405280929190818152602001828054610161906108f7565b80156101ae5780601f10610183576101008083540402835291602001916101ae565b820191906000526020600020905b81548152906001019060200180831161019157829003601f168201915b505050505081565b6060600160008373ffffffffffffffffffffffffffffffffffffffff1673ffffffffffffffffffffffffffffffffffffffff168152602001908152602001600020805480602002602001604051908101604052809291908181526020016000905b828210156102c3578382906000526020600020018054610236906108f7565b80601f0160208091040260200160405190810160405280929190818152602001828054610262906108f7565b80156102af5780601f10610284576101008083540402835291602001916102af565b820191906000526020600020905b81548152906001019060200180831161029257829003601f168201915b505050505081526020019060010190610217565b505050509050919050565b6000808373ffffffffffffffffffffffffffffffffffffffff1673ffffffffffffffffffffffffffffffffffffffff16815260200190815260200160002060009054906101000a900460ff166103765760016000808473ffffffffffffffffffffffffffffffffffffffff1673ffffffffffffffffffffffffffffffffffffffff16815260200190815260200160002060006101000a81548160ff0219169083151502179055505b600160008373ffffffffffffffffffffffffffffffffffffffff1673ffffffffffffffffffffffffffffffffffffffff168152602001908152602001600020819080600181540180825580915050600190039060005260206000200160009091909190915090816103e79190610ad4565b505050565b60006020528060005260406000206000915054906101000a900460ff1681565b6000604051905090565b600080fd5b600080fd5b600073ffffffffffffffffffffffffffffffffffffffff82169050919050565b600061044b82610420565b9050919050565b61045b81610440565b811461046657600080fd5b50565b60008135905061047881610452565b92915050565b6000819050919050565b6104918161047e565b811461049c57600080fd5b50565b6000813590506104ae81610488565b92915050565b600080604083850312156104cb576104ca610416565b5b60006104d985828601610469565b92505060206104ea8582860161049f565b9150509250929050565b600081519050919050565b600082825260208201905092915050565b60005b8381101561052e578082015181840152602081019050610513565b60008484015250505050565b6000601f19601f8301169050919050565b6000610556826104f4565b61056081856104ff565b9350610570818560208601610510565b6105798161053a565b840191505092915050565b6000602082019050818103600083015261059e818461054b565b905092915050565b6000602082840312156105bc576105bb610416565b5b60006105ca84828501610469565b91505092915050565b600081519050919050565b600082825260208201905092915050565b6000819050602082019050919050565b600082825260208201905092915050565b600061061b826104f4565b61062581856105ff565b9350610635818560208601610510565b61063e8161053a565b840191505092915050565b60006106558383610610565b905092915050565b6000602082019050919050565b6000610675826105d3565b61067f81856105de565b935083602082028501610691856105ef565b8060005b858110156106cd57848403895281516106ae8582610649565b94506106b98361065d565b925060208a01995050600181019050610695565b50829750879550505050505092915050565b600060208201905081810360008301526106f9818461066a565b905092915050565b600080fd5b600080fd5b7f4e487b7100000000000000000000000000000000000000000000000000000000600052604160045260246000fd5b6107438261053a565b810181811067ffffffffffffffff821117156107625761076161070b565b5b80604052505050565b600061077561040c565b9050610781828261073a565b919050565b600067ffffffffffffffff8211156107a1576107a061070b565b5b6107aa8261053a565b9050602081019050919050565b82818337600083830152505050565b60006107d96107d484610786565b61076b565b9050828152602081018484840111156107f5576107f4610706565b5b6108008482856107b7565b509392505050565b600082601f83011261081d5761081c610701565b5b813561082d8482602086016107c6565b91505092915050565b6000806040838503121561084d5761084c610416565b5b600061085b85828601610469565b925050602083013567ffffffffffffffff81111561087c5761087b61041b565b5b61088885828601610808565b9150509250929050565b60008115159050919050565b6108a781610892565b82525050565b60006020820190506108c2600083018461089e565b92915050565b7f4e487b7100000000000000000000000000000000000000000000000000000000600052602260045260246000fd5b6000600282049050600182168061090f57607f821691505b602082108103610922576109216108c8565b5b50919050565b60008190508160005260206000209050919050565b60006020601f8301049050919050565b600082821b905092915050565b60006008830261098a7fffffffffffffffffffffffffffffffffffffffffffffffffffffffffffffffff8261094d565b610994868361094d565b95508019841693508086168417925050509392505050565b6000819050919050565b60006109d16109cc6109c78461047e565b6109ac565b61047e565b9050919050565b6000819050919050565b6109eb836109b6565b6109ff6109f7826109d8565b84845461095a565b825550505050565b600090565b610a14610a07565b610a1f8184846109e2565b505050565b5b81811015610a4357610a38600082610a0c565b600181019050610a25565b5050565b601f821115610a8857610a5981610928565b610a628461093d565b81016020851015610a71578190505b610a85610a7d8561093d565b830182610a24565b50505b505050565b600082821c905092915050565b6000610aab60001984600802610a8d565b1980831691505092915050565b6000610ac48383610a9a565b9150826002028217905092915050565b610add826104f4565b67ffffffffffffffff811115610af657610af561070b565b5b610b0082546108f7565b610b0b828285610a47565b600060209050601f831160018114610b3e5760008415610b2c578287015190505b610b368582610ab8565b865550610b9e565b601f198416610b4c86610928565b60005b82811015610b7457848901518255600182019150602085019450602081019050610b4f565b86831015610b915784890151610b8d601f891682610a9a565b8355505b6001600288020188555050505b50505050505056fea26469706673582212208e7f76a2fd9d1c7f2615d7bc3f5efc8fee86d948b02479811ada0c4d7e53961364736f6c63430008130033",
    "linkReferences": {},
    "deployedLinkReferences": {}
}