{
  "_format": "hh-sol-artifact-1",
  "contractName": "Base",
  "sourceName": "contracts/base.sol",
  "abi": [
    {
      "inputs": [],
      "stateMutability": "nonpayable",
      "type": "constructor"
    },
    {
      "inputs": [
        {
          "internalType": "uint256",
          "name": "",
          "type": "uint256"
        }
      ],
      "name": "Whitelisted_Hospitals",
      "outputs": [
        {
          "internalType": "address",
          "name": "",
          "type": "address"
        }
      ],
      "stateMutability": "view",
      "type": "function"
    },
    {
      "inputs": [
        {
          "internalType": "address",
          "name": "_address",
          "type": "address"
        }
      ],
      "name": "addToWhitelist",
      "outputs": [],
      "stateMutability": "nonpayable",
      "type": "function"
    },
    {
      "inputs": [],
      "name": "getOwner",
      "outputs": [
        {
          "internalType": "address",
          "name": "",
          "type": "address"
        }
      ],
      "stateMutability": "view",
      "type": "function"
    },
    {
      "inputs": [
        {
          "internalType": "address",
          "name": "_address",
          "type": "address"
        }
      ],
      "name": "isWhitelisted",
      "outputs": [
        {
          "internalType": "bool",
          "name": "",
          "type": "bool"
        }
      ],
      "stateMutability": "view",
      "type": "function"
    },
    {
      "inputs": [],
      "name": "owner",
      "outputs": [
        {
          "internalType": "address",
          "name": "",
          "type": "address"
        }
      ],
      "stateMutability": "view",
      "type": "function"
    },
    {
      "inputs": [
        {
          "internalType": "address",
          "name": "_address",
          "type": "address"
        }
      ],
      "name": "removeFromWhitelist",
      "outputs": [],
      "stateMutability": "nonpayable",
      "type": "function"
    },
    {
      "inputs": [],
      "name": "returnList",
      "outputs": [
        {
          "internalType": "address[]",
          "name": "",
          "type": "address[]"
        }
      ],
      "stateMutability": "view",
      "type": "function"
    },
    {
      "inputs": [
        {
          "internalType": "address",
          "name": "newOwner",
          "type": "address"
        }
      ],
      "name": "transferOwnership",
      "outputs": [],
      "stateMutability": "nonpayable",
      "type": "function"
    },
    {
      "inputs": [
        {
          "internalType": "address",
          "name": "",
          "type": "address"
        }
      ],
      "name": "whitelist",
      "outputs": [
        {
          "internalType": "bool",
          "name": "",
          "type": "bool"
        }
      ],
      "stateMutability": "view",
      "type": "function"
    }
  ],
  "bytecode": "0x608060405234801561001057600080fd5b50336000806101000a81548173ffffffffffffffffffffffffffffffffffffffff021916908373ffffffffffffffffffffffffffffffffffffffff160217905550610dfc806100606000396000f3fe608060405234801561001057600080fd5b50600436106100935760003560e01c80638ab1d681116100665780638ab1d681146101345780638da5cb5b146101505780639b19251a1461016e578063e43252d71461019e578063f2fde38b146101ba57610093565b80633af32abf146100985780633b1a5739146100c85780635ee6d114146100f8578063893d20e814610116575b600080fd5b6100b260048036038101906100ad9190610964565b6101d6565b6040516100bf91906109ac565b60405180910390f35b6100e260048036038101906100dd91906109fd565b61022c565b6040516100ef9190610a39565b60405180910390f35b61010061026b565b60405161010d9190610b12565b60405180910390f35b61011e6102f9565b60405161012b9190610a39565b60405180910390f35b61014e60048036038101906101499190610964565b610322565b005b6101586105d7565b6040516101659190610a39565b60405180910390f35b61018860048036038101906101839190610964565b6105fb565b60405161019591906109ac565b60405180910390f35b6101b860048036038101906101b39190610964565b61061b565b005b6101d460048036038101906101cf9190610964565b6107bd565b005b6000600160008373ffffffffffffffffffffffffffffffffffffffff1673ffffffffffffffffffffffffffffffffffffffff16815260200190815260200160002060009054906101000a900460ff169050919050565b6002818154811061023c57600080fd5b906000526020600020016000915054906101000a900473ffffffffffffffffffffffffffffffffffffffff1681565b606060028054806020026020016040519081016040528092919081815260200182805480156102ef57602002820191906000526020600020905b8160009054906101000a900473ffffffffffffffffffffffffffffffffffffffff1673ffffffffffffffffffffffffffffffffffffffff16815260200190600101908083116102a5575b5050505050905090565b60008060009054906101000a900473ffffffffffffffffffffffffffffffffffffffff16905090565b60008054906101000a900473ffffffffffffffffffffffffffffffffffffffff1673ffffffffffffffffffffffffffffffffffffffff163373ffffffffffffffffffffffffffffffffffffffff161461037a57600080fd5b600160008273ffffffffffffffffffffffffffffffffffffffff1673ffffffffffffffffffffffffffffffffffffffff16815260200190815260200160002060009054906101000a900460ff16610406576040517f08c379a00000000000000000000000000000000000000000000000000000000081526004016103fd90610b91565b60405180910390fd5b6000600160008373ffffffffffffffffffffffffffffffffffffffff1673ffffffffffffffffffffffffffffffffffffffff16815260200190815260200160002060006101000a81548160ff021916908315150217905550600061046982610858565b905060028054905081106104b2576040517f08c379a00000000000000000000000000000000000000000000000000000000081526004016104a990610bfd565b60405180910390fd5b60008190505b60016002805490506104ca9190610c4c565b81101561058b5760026001826104e09190610c80565b815481106104f1576104f0610cb4565b5b9060005260206000200160009054906101000a900473ffffffffffffffffffffffffffffffffffffffff16600282815481106105305761052f610cb4565b5b9060005260206000200160006101000a81548173ffffffffffffffffffffffffffffffffffffffff021916908373ffffffffffffffffffffffffffffffffffffffff160217905550808061058390610ce3565b9150506104b8565b50600280548061059e5761059d610d2b565b5b6001900381819060005260206000200160006101000a81549073ffffffffffffffffffffffffffffffffffffffff021916905590555050565b60008054906101000a900473ffffffffffffffffffffffffffffffffffffffff1681565b60016020528060005260406000206000915054906101000a900460ff1681565b60008054906101000a900473ffffffffffffffffffffffffffffffffffffffff1673ffffffffffffffffffffffffffffffffffffffff163373ffffffffffffffffffffffffffffffffffffffff161461067357600080fd5b600160008273ffffffffffffffffffffffffffffffffffffffff1673ffffffffffffffffffffffffffffffffffffffff16815260200190815260200160002060009054906101000a900460ff1615610700576040517f08c379a00000000000000000000000000000000000000000000000000000000081526004016106f790610da6565b60405180910390fd5b60018060008373ffffffffffffffffffffffffffffffffffffffff1673ffffffffffffffffffffffffffffffffffffffff16815260200190815260200160002060006101000a81548160ff0219169083151502179055506002819080600181540180825580915050600190039060005260206000200160009091909190916101000a81548173ffffffffffffffffffffffffffffffffffffffff021916908373ffffffffffffffffffffffffffffffffffffffff16021790555050565b60008054906101000a900473ffffffffffffffffffffffffffffffffffffffff1673ffffffffffffffffffffffffffffffffffffffff163373ffffffffffffffffffffffffffffffffffffffff161461081557600080fd5b806000806101000a81548173ffffffffffffffffffffffffffffffffffffffff021916908373ffffffffffffffffffffffffffffffffffffffff16021790555050565b60008060005b6002805490508110156108f7578373ffffffffffffffffffffffffffffffffffffffff166002828154811061089657610895610cb4565b5b9060005260206000200160009054906101000a900473ffffffffffffffffffffffffffffffffffffffff1673ffffffffffffffffffffffffffffffffffffffff16036108e4578091506108f7565b80806108ef90610ce3565b91505061085e565b5080915050919050565b600080fd5b600073ffffffffffffffffffffffffffffffffffffffff82169050919050565b600061093182610906565b9050919050565b61094181610926565b811461094c57600080fd5b50565b60008135905061095e81610938565b92915050565b60006020828403121561097a57610979610901565b5b60006109888482850161094f565b91505092915050565b60008115159050919050565b6109a681610991565b82525050565b60006020820190506109c1600083018461099d565b92915050565b6000819050919050565b6109da816109c7565b81146109e557600080fd5b50565b6000813590506109f7816109d1565b92915050565b600060208284031215610a1357610a12610901565b5b6000610a21848285016109e8565b91505092915050565b610a3381610926565b82525050565b6000602082019050610a4e6000830184610a2a565b92915050565b600081519050919050565b600082825260208201905092915050565b6000819050602082019050919050565b610a8981610926565b82525050565b6000610a9b8383610a80565b60208301905092915050565b6000602082019050919050565b6000610abf82610a54565b610ac98185610a5f565b9350610ad483610a70565b8060005b83811015610b05578151610aec8882610a8f565b9750610af783610aa7565b925050600181019050610ad8565b5085935050505092915050565b60006020820190508181036000830152610b2c8184610ab4565b905092915050565b600082825260208201905092915050565b7f4e6f742057686974656c69737465642100000000000000000000000000000000600082015250565b6000610b7b601083610b34565b9150610b8682610b45565b602082019050919050565b60006020820190508181036000830152610baa81610b6e565b9050919050565b7f496e646578206f7574206f6620626f756e647300000000000000000000000000600082015250565b6000610be7601383610b34565b9150610bf282610bb1565b602082019050919050565b60006020820190508181036000830152610c1681610bda565b9050919050565b7f4e487b7100000000000000000000000000000000000000000000000000000000600052601160045260246000fd5b6000610c57826109c7565b9150610c62836109c7565b9250828203905081811115610c7a57610c79610c1d565b5b92915050565b6000610c8b826109c7565b9150610c96836109c7565b9250828201905080821115610cae57610cad610c1d565b5b92915050565b7f4e487b7100000000000000000000000000000000000000000000000000000000600052603260045260246000fd5b6000610cee826109c7565b91507fffffffffffffffffffffffffffffffffffffffffffffffffffffffffffffffff8203610d2057610d1f610c1d565b5b600182019050919050565b7f4e487b7100000000000000000000000000000000000000000000000000000000600052603160045260246000fd5b7f416c72656164792077686974656c697374656421000000000000000000000000600082015250565b6000610d90601483610b34565b9150610d9b82610d5a565b602082019050919050565b60006020820190508181036000830152610dbf81610d83565b905091905056fea264697066735822122005ef2899acdf5e9098f3adc43ebd7862a42a4689de966af491fe66d486f4565164736f6c63430008130033",
  "linkReferences": {},
  "deployedLinkReferences": {}
}