{
  "_format": "hh-sol-artifact-1",
  "contractName": "NFT",
  "sourceName": "contracts/NFT.sol",
  "abi": [
    {
      "inputs": [],
      "stateMutability": "nonpayable",
      "type": "constructor"
    },
    {
      "anonymous": false,
      "inputs": [
        {
          "indexed": true,
          "internalType": "address",
          "name": "owner",
          "type": "address"
        },
        {
          "indexed": true,
          "internalType": "address",
          "name": "approved",
          "type": "address"
        },
        {
          "indexed": true,
          "internalType": "uint256",
          "name": "tokenId",
          "type": "uint256"
        }
      ],
      "name": "Approval",
      "type": "event"
    },
    {
      "anonymous": false,
      "inputs": [
        {
          "indexed": true,
          "internalType": "address",
          "name": "owner",
          "type": "address"
        },
        {
          "indexed": true,
          "internalType": "address",
          "name": "operator",
          "type": "address"
        },
        {
          "indexed": false,
          "internalType": "bool",
          "name": "approved",
          "type": "bool"
        }
      ],
      "name": "ApprovalForAll",
      "type": "event"
    },
    {
      "anonymous": false,
      "inputs": [
        {
          "indexed": true,
          "internalType": "address",
          "name": "previousOwner",
          "type": "address"
        },
        {
          "indexed": true,
          "internalType": "address",
          "name": "newOwner",
          "type": "address"
        }
      ],
      "name": "OwnershipTransferred",
      "type": "event"
    },
    {
      "anonymous": false,
      "inputs": [
        {
          "indexed": true,
          "internalType": "address",
          "name": "from",
          "type": "address"
        },
        {
          "indexed": true,
          "internalType": "address",
          "name": "to",
          "type": "address"
        },
        {
          "indexed": true,
          "internalType": "uint256",
          "name": "tokenId",
          "type": "uint256"
        }
      ],
      "name": "Transfer",
      "type": "event"
    },
    {
      "inputs": [
        {
          "internalType": "address",
          "name": "to",
          "type": "address"
        },
        {
          "internalType": "uint256",
          "name": "tokenId",
          "type": "uint256"
        }
      ],
      "name": "approve",
      "outputs": [],
      "stateMutability": "nonpayable",
      "type": "function"
    },
    {
      "inputs": [
        {
          "internalType": "address",
          "name": "owner",
          "type": "address"
        }
      ],
      "name": "balanceOf",
      "outputs": [
        {
          "internalType": "uint256",
          "name": "",
          "type": "uint256"
        }
      ],
      "stateMutability": "view",
      "type": "function"
    },
    {
      "inputs": [],
      "name": "getAllMinted",
      "outputs": [
        {
          "internalType": "string[]",
          "name": "",
          "type": "string[]"
        }
      ],
      "stateMutability": "view",
      "type": "function"
    },
    {
      "inputs": [
        {
          "internalType": "uint256",
          "name": "tokenId",
          "type": "uint256"
        }
      ],
      "name": "getApproved",
      "outputs": [
        {
          "internalType": "address",
          "name": "",
          "type": "address"
        }
      ],
      "stateMutability": "view",
      "type": "function"
    },
    {
      "inputs": [
        {
          "internalType": "address",
          "name": "owner",
          "type": "address"
        },
        {
          "internalType": "address",
          "name": "operator",
          "type": "address"
        }
      ],
      "name": "isApprovedForAll",
      "outputs": [
        {
          "internalType": "bool",
          "name": "",
          "type": "bool"
        }
      ],
      "stateMutability": "view",
      "type": "function"
    },
    {
      "inputs": [
        {
          "internalType": "string",
          "name": "_tokenURI",
          "type": "string"
        },
        {
          "internalType": "uint256",
          "name": "_tokenId",
          "type": "uint256"
        },
        {
          "internalType": "string",
          "name": "IpfsHash",
          "type": "string"
        }
      ],
      "name": "mint",
      "outputs": [],
      "stateMutability": "nonpayable",
      "type": "function"
    },
    {
      "inputs": [
        {
          "internalType": "uint256",
          "name": "",
          "type": "uint256"
        }
      ],
      "name": "minted",
      "outputs": [
        {
          "internalType": "string",
          "name": "",
          "type": "string"
        }
      ],
      "stateMutability": "view",
      "type": "function"
    },
    {
      "inputs": [],
      "name": "name",
      "outputs": [
        {
          "internalType": "string",
          "name": "",
          "type": "string"
        }
      ],
      "stateMutability": "view",
      "type": "function"
    },
    {
      "inputs": [],
      "name": "owner",
      "outputs": [
        {
          "internalType": "address",
          "name": "",
          "type": "address"
        }
      ],
      "stateMutability": "view",
      "type": "function"
    },
    {
      "inputs": [
        {
          "internalType": "uint256",
          "name": "tokenId",
          "type": "uint256"
        }
      ],
      "name": "ownerOf",
      "outputs": [
        {
          "internalType": "address",
          "name": "",
          "type": "address"
        }
      ],
      "stateMutability": "view",
      "type": "function"
    },
    {
      "inputs": [],
      "name": "renounceOwnership",
      "outputs": [],
      "stateMutability": "nonpayable",
      "type": "function"
    },
    {
      "inputs": [
        {
          "internalType": "address",
          "name": "from",
          "type": "address"
        },
        {
          "internalType": "address",
          "name": "to",
          "type": "address"
        },
        {
          "internalType": "uint256",
          "name": "tokenId",
          "type": "uint256"
        }
      ],
      "name": "safeTransferFrom",
      "outputs": [],
      "stateMutability": "nonpayable",
      "type": "function"
    },
    {
      "inputs": [
        {
          "internalType": "address",
          "name": "from",
          "type": "address"
        },
        {
          "internalType": "address",
          "name": "to",
          "type": "address"
        },
        {
          "internalType": "uint256",
          "name": "tokenId",
          "type": "uint256"
        },
        {
          "internalType": "bytes",
          "name": "data",
          "type": "bytes"
        }
      ],
      "name": "safeTransferFrom",
      "outputs": [],
      "stateMutability": "nonpayable",
      "type": "function"
    },
    {
      "inputs": [
        {
          "internalType": "address",
          "name": "operator",
          "type": "address"
        },
        {
          "internalType": "bool",
          "name": "approved",
          "type": "bool"
        }
      ],
      "name": "setApprovalForAll",
      "outputs": [],
      "stateMutability": "nonpayable",
      "type": "function"
    },
    {
      "inputs": [
        {
          "internalType": "bytes4",
          "name": "interfaceId",
          "type": "bytes4"
        }
      ],
      "name": "supportsInterface",
      "outputs": [
        {
          "internalType": "bool",
          "name": "",
          "type": "bool"
        }
      ],
      "stateMutability": "view",
      "type": "function"
    },
    {
      "inputs": [],
      "name": "symbol",
      "outputs": [
        {
          "internalType": "string",
          "name": "",
          "type": "string"
        }
      ],
      "stateMutability": "view",
      "type": "function"
    },
    {
      "inputs": [
        {
          "internalType": "uint256",
          "name": "tokenId",
          "type": "uint256"
        }
      ],
      "name": "tokenURI",
      "outputs": [
        {
          "internalType": "string",
          "name": "",
          "type": "string"
        }
      ],
      "stateMutability": "view",
      "type": "function"
    },
    {
      "inputs": [],
      "name": "totalSupply",
      "outputs": [
        {
          "internalType": "uint256",
          "name": "",
          "type": "uint256"
        }
      ],
      "stateMutability": "view",
      "type": "function"
    },
    {
      "inputs": [
        {
          "internalType": "address",
          "name": "from",
          "type": "address"
        },
        {
          "internalType": "address",
          "name": "to",
          "type": "address"
        },
        {
          "internalType": "uint256",
          "name": "tokenId",
          "type": "uint256"
        }
      ],
      "name": "transferFrom",
      "outputs": [],
      "stateMutability": "nonpayable",
      "type": "function"
    },
    {
      "inputs": [
        {
          "internalType": "address",
          "name": "newOwner",
          "type": "address"
        }
      ],
      "name": "transferOwnership",
      "outputs": [],
      "stateMutability": "nonpayable",
      "type": "function"
    }
  ],
  "bytecode": "0x60806040523480156200001157600080fd5b506040518060400160405280600a81526020017f4845414c5448204e4654000000000000000000000000000000000000000000008152506040518060400160405280600381526020017f4e4654000000000000000000000000000000000000000000000000000000000081525081600090816200008f919062000412565b508060019081620000a1919062000412565b505050620000c4620000b8620000ca60201b60201c565b620000d260201b60201c565b620004f9565b600033905090565b6000600760009054906101000a900473ffffffffffffffffffffffffffffffffffffffff16905081600760006101000a81548173ffffffffffffffffffffffffffffffffffffffff021916908373ffffffffffffffffffffffffffffffffffffffff1602179055508173ffffffffffffffffffffffffffffffffffffffff168173ffffffffffffffffffffffffffffffffffffffff167f8be0079c531659141344cd1fd0a4f28419497f9722a3daafe3b4186f6b6457e060405160405180910390a35050565b600081519050919050565b7f4e487b7100000000000000000000000000000000000000000000000000000000600052604160045260246000fd5b7f4e487b7100000000000000000000000000000000000000000000000000000000600052602260045260246000fd5b600060028204905060018216806200021a57607f821691505b60208210810362000230576200022f620001d2565b5b50919050565b60008190508160005260206000209050919050565b60006020601f8301049050919050565b600082821b905092915050565b6000600883026200029a7fffffffffffffffffffffffffffffffffffffffffffffffffffffffffffffffff826200025b565b620002a686836200025b565b95508019841693508086168417925050509392505050565b6000819050919050565b6000819050919050565b6000620002f3620002ed620002e784620002be565b620002c8565b620002be565b9050919050565b6000819050919050565b6200030f83620002d2565b620003276200031e82620002fa565b84845462000268565b825550505050565b600090565b6200033e6200032f565b6200034b81848462000304565b505050565b5b8181101562000373576200036760008262000334565b60018101905062000351565b5050565b601f821115620003c2576200038c8162000236565b62000397846200024b565b81016020851015620003a7578190505b620003bf620003b6856200024b565b83018262000350565b50505b505050565b600082821c905092915050565b6000620003e760001984600802620003c7565b1980831691505092915050565b6000620004028383620003d4565b9150826002028217905092915050565b6200041d8262000198565b67ffffffffffffffff811115620004395762000438620001a3565b5b62000445825462000201565b6200045282828562000377565b600060209050601f8311600181146200048a576000841562000475578287015190505b620004818582620003f4565b865550620004f1565b601f1984166200049a8662000236565b60005b82811015620004c4578489015182556001820191506020850194506020810190506200049d565b86831015620004e45784890151620004e0601f891682620003d4565b8355505b6001600288020188555050505b505050505050565b61322180620005096000396000f3fe608060405234801561001057600080fd5b506004361061012c5760003560e01c806370a08231116100ad578063a22cb46511610071578063a22cb46514610331578063b88d4fde1461034d578063c87b56dd14610369578063e985e9c514610399578063f2fde38b146103c95761012c565b806370a082311461028b578063715018a6146102bb5780637dc0bf3f146102c55780638da5cb5b146102f557806395d89b41146103135761012c565b806318160ddd116100f457806318160ddd146101e757806323b872dd146102055780633595e9bf1461022157806342842e0e1461023f5780636352211e1461025b5761012c565b806301ffc9a71461013157806306bdc9491461016157806306fdde031461017d578063081812fc1461019b578063095ea7b3146101cb575b600080fd5b61014b60048036038101906101469190611e3e565b6103e5565b6040516101589190611e86565b60405180910390f35b61017b6004803603810190610176919061201d565b6104c7565b005b61018561052d565b6040516101929190612127565b60405180910390f35b6101b560048036038101906101b09190612149565b6105bf565b6040516101c291906121b7565b60405180910390f35b6101e560048036038101906101e091906121fe565b610605565b005b6101ef61071c565b6040516101fc919061224d565b60405180910390f35b61021f600480360381019061021a9190612268565b610726565b005b610229610786565b60405161023691906123c7565b60405180910390f35b61025960048036038101906102549190612268565b61085f565b005b61027560048036038101906102709190612149565b61087f565b60405161028291906121b7565b60405180910390f35b6102a560048036038101906102a091906123e9565b610905565b6040516102b2919061224d565b60405180910390f35b6102c36109bc565b005b6102df60048036038101906102da9190612149565b6109d0565b6040516102ec9190612127565b60405180910390f35b6102fd610a7c565b60405161030a91906121b7565b60405180910390f35b61031b610aa6565b6040516103289190612127565b60405180910390f35b61034b60048036038101906103469190612442565b610b38565b005b61036760048036038101906103629190612523565b610b4e565b005b610383600480360381019061037e9190612149565b610bb0565b6040516103909190612127565b60405180910390f35b6103b360048036038101906103ae91906125a6565b610bc2565b6040516103c09190611e86565b60405180910390f35b6103e360048036038101906103de91906123e9565b610c56565b005b60007f80ac58cd000000000000000000000000000000000000000000000000000000007bffffffffffffffffffffffffffffffffffffffffffffffffffffffff1916827bffffffffffffffffffffffffffffffffffffffffffffffffffffffff191614806104b057507f5b5e139f000000000000000000000000000000000000000000000000000000007bffffffffffffffffffffffffffffffffffffffffffffffffffffffff1916827bffffffffffffffffffffffffffffffffffffffffffffffffffffffff1916145b806104c057506104bf82610cd9565b5b9050919050565b6104d13383610d43565b6104db8284610d61565b600860008154809291906104ee90612615565b91905055506009819080600181540180825580915050600190039060005260206000200160009091909190915090816105279190612869565b50505050565b60606000805461053c9061268c565b80601f01602080910402602001604051908101604052809291908181526020018280546105689061268c565b80156105b55780601f1061058a576101008083540402835291602001916105b5565b820191906000526020600020905b81548152906001019060200180831161059857829003601f168201915b5050505050905090565b60006105ca82610dce565b6004600083815260200190815260200160002060009054906101000a900473ffffffffffffffffffffffffffffffffffffffff169050919050565b60006106108261087f565b90508073ffffffffffffffffffffffffffffffffffffffff168373ffffffffffffffffffffffffffffffffffffffff1603610680576040517f08c379a0000000000000000000000000000000000000000000000000000000008152600401610677906129ad565b60405180910390fd5b8073ffffffffffffffffffffffffffffffffffffffff1661069f610e19565b73ffffffffffffffffffffffffffffffffffffffff1614806106ce57506106cd816106c8610e19565b610bc2565b5b61070d576040517f08c379a000000000000000000000000000000000000000000000000000000000815260040161070490612a3f565b60405180910390fd5b6107178383610e21565b505050565b6000600854905090565b610737610731610e19565b82610eda565b610776576040517f08c379a000000000000000000000000000000000000000000000000000000000815260040161076d90612ad1565b60405180910390fd5b610781838383610f6f565b505050565b60606009805480602002602001604051908101604052809291908181526020016000905b828210156108565783829060005260206000200180546107c99061268c565b80601f01602080910402602001604051908101604052809291908181526020018280546107f59061268c565b80156108425780601f1061081757610100808354040283529160200191610842565b820191906000526020600020905b81548152906001019060200180831161082557829003601f168201915b5050505050815260200190600101906107aa565b50505050905090565b61087a83838360405180602001604052806000815250610b4e565b505050565b60008061088b83611268565b9050600073ffffffffffffffffffffffffffffffffffffffff168173ffffffffffffffffffffffffffffffffffffffff16036108fc576040517f08c379a00000000000000000000000000000000000000000000000000000000081526004016108f390612b3d565b60405180910390fd5b80915050919050565b60008073ffffffffffffffffffffffffffffffffffffffff168273ffffffffffffffffffffffffffffffffffffffff1603610975576040517f08c379a000000000000000000000000000000000000000000000000000000000815260040161096c90612bcf565b60405180910390fd5b600360008373ffffffffffffffffffffffffffffffffffffffff1673ffffffffffffffffffffffffffffffffffffffff168152602001908152602001600020549050919050565b6109c46112a5565b6109ce6000611323565b565b600981815481106109e057600080fd5b9060005260206000200160009150905080546109fb9061268c565b80601f0160208091040260200160405190810160405280929190818152602001828054610a279061268c565b8015610a745780601f10610a4957610100808354040283529160200191610a74565b820191906000526020600020905b815481529060010190602001808311610a5757829003601f168201915b505050505081565b6000600760009054906101000a900473ffffffffffffffffffffffffffffffffffffffff16905090565b606060018054610ab59061268c565b80601f0160208091040260200160405190810160405280929190818152602001828054610ae19061268c565b8015610b2e5780601f10610b0357610100808354040283529160200191610b2e565b820191906000526020600020905b815481529060010190602001808311610b1157829003601f168201915b5050505050905090565b610b4a610b43610e19565b83836113e9565b5050565b610b5f610b59610e19565b83610eda565b610b9e576040517f08c379a0000000000000000000000000000000000000000000000000000000008152600401610b9590612ad1565b60405180910390fd5b610baa84848484611555565b50505050565b6060610bbb826115b1565b9050919050565b6000600560008473ffffffffffffffffffffffffffffffffffffffff1673ffffffffffffffffffffffffffffffffffffffff16815260200190815260200160002060008373ffffffffffffffffffffffffffffffffffffffff1673ffffffffffffffffffffffffffffffffffffffff16815260200190815260200160002060009054906101000a900460ff16905092915050565b610c5e6112a5565b600073ffffffffffffffffffffffffffffffffffffffff168173ffffffffffffffffffffffffffffffffffffffff1603610ccd576040517f08c379a0000000000000000000000000000000000000000000000000000000008152600401610cc490612c61565b60405180910390fd5b610cd681611323565b50565b60007f01ffc9a7000000000000000000000000000000000000000000000000000000007bffffffffffffffffffffffffffffffffffffffffffffffffffffffff1916827bffffffffffffffffffffffffffffffffffffffffffffffffffffffff1916149050919050565b610d5d8282604051806020016040528060008152506116c3565b5050565b610d6a8261171e565b610da9576040517f08c379a0000000000000000000000000000000000000000000000000000000008152600401610da090612cf3565b60405180910390fd5b80600660008481526020019081526020016000209081610dc99190612869565b505050565b610dd78161171e565b610e16576040517f08c379a0000000000000000000000000000000000000000000000000000000008152600401610e0d90612b3d565b60405180910390fd5b50565b600033905090565b816004600083815260200190815260200160002060006101000a81548173ffffffffffffffffffffffffffffffffffffffff021916908373ffffffffffffffffffffffffffffffffffffffff160217905550808273ffffffffffffffffffffffffffffffffffffffff16610e948361087f565b73ffffffffffffffffffffffffffffffffffffffff167f8c5be1e5ebec7d5bd14f71427d1e84f3dd0314c0f7b2291e5b200ac8c7c3b92560405160405180910390a45050565b600080610ee68361087f565b90508073ffffffffffffffffffffffffffffffffffffffff168473ffffffffffffffffffffffffffffffffffffffff161480610f285750610f278185610bc2565b5b80610f6657508373ffffffffffffffffffffffffffffffffffffffff16610f4e846105bf565b73ffffffffffffffffffffffffffffffffffffffff16145b91505092915050565b8273ffffffffffffffffffffffffffffffffffffffff16610f8f8261087f565b73ffffffffffffffffffffffffffffffffffffffff1614610fe5576040517f08c379a0000000000000000000000000000000000000000000000000000000008152600401610fdc90612d85565b60405180910390fd5b600073ffffffffffffffffffffffffffffffffffffffff168273ffffffffffffffffffffffffffffffffffffffff1603611054576040517f08c379a000000000000000000000000000000000000000000000000000000000815260040161104b90612e17565b60405180910390fd5b611061838383600161175f565b8273ffffffffffffffffffffffffffffffffffffffff166110818261087f565b73ffffffffffffffffffffffffffffffffffffffff16146110d7576040517f08c379a00000000000000000000000000000000000000000000000000000000081526004016110ce90612d85565b60405180910390fd5b6004600082815260200190815260200160002060006101000a81549073ffffffffffffffffffffffffffffffffffffffff02191690556001600360008573ffffffffffffffffffffffffffffffffffffffff1673ffffffffffffffffffffffffffffffffffffffff168152602001908152602001600020600082825403925050819055506001600360008473ffffffffffffffffffffffffffffffffffffffff1673ffffffffffffffffffffffffffffffffffffffff16815260200190815260200160002060008282540192505081905550816002600083815260200190815260200160002060006101000a81548173ffffffffffffffffffffffffffffffffffffffff021916908373ffffffffffffffffffffffffffffffffffffffff160217905550808273ffffffffffffffffffffffffffffffffffffffff168473ffffffffffffffffffffffffffffffffffffffff167fddf252ad1be2c89b69c2b068fc378daa952ba7f163c4a11628f55a4df523b3ef60405160405180910390a46112638383836001611765565b505050565b60006002600083815260200190815260200160002060009054906101000a900473ffffffffffffffffffffffffffffffffffffffff169050919050565b6112ad610e19565b73ffffffffffffffffffffffffffffffffffffffff166112cb610a7c565b73ffffffffffffffffffffffffffffffffffffffff1614611321576040517f08c379a000000000000000000000000000000000000000000000000000000000815260040161131890612e83565b60405180910390fd5b565b6000600760009054906101000a900473ffffffffffffffffffffffffffffffffffffffff16905081600760006101000a81548173ffffffffffffffffffffffffffffffffffffffff021916908373ffffffffffffffffffffffffffffffffffffffff1602179055508173ffffffffffffffffffffffffffffffffffffffff168173ffffffffffffffffffffffffffffffffffffffff167f8be0079c531659141344cd1fd0a4f28419497f9722a3daafe3b4186f6b6457e060405160405180910390a35050565b8173ffffffffffffffffffffffffffffffffffffffff168373ffffffffffffffffffffffffffffffffffffffff1603611457576040517f08c379a000000000000000000000000000000000000000000000000000000000815260040161144e90612eef565b60405180910390fd5b80600560008573ffffffffffffffffffffffffffffffffffffffff1673ffffffffffffffffffffffffffffffffffffffff16815260200190815260200160002060008473ffffffffffffffffffffffffffffffffffffffff1673ffffffffffffffffffffffffffffffffffffffff16815260200190815260200160002060006101000a81548160ff0219169083151502179055508173ffffffffffffffffffffffffffffffffffffffff168373ffffffffffffffffffffffffffffffffffffffff167f17307eab39ab6107e8899845ad3d59bd9653f200f220920489ca2b5937696c31836040516115489190611e86565b60405180910390a3505050565b611560848484610f6f565b61156c8484848461176b565b6115ab576040517f08c379a00000000000000000000000000000000000000000000000000000000081526004016115a290612f81565b60405180910390fd5b50505050565b60606115bc82610dce565b60006006600084815260200190815260200160002080546115dc9061268c565b80601f01602080910402602001604051908101604052809291908181526020018280546116089061268c565b80156116555780601f1061162a57610100808354040283529160200191611655565b820191906000526020600020905b81548152906001019060200180831161163857829003601f168201915b5050505050905060006116666118f2565b9050600081510361167b5781925050506116be565b6000825111156116b0578082604051602001611698929190612fdd565b604051602081830303815290604052925050506116be565b6116b984611909565b925050505b919050565b6116cd8383611971565b6116da600084848461176b565b611719576040517f08c379a000000000000000000000000000000000000000000000000000000000815260040161171090612f81565b60405180910390fd5b505050565b60008073ffffffffffffffffffffffffffffffffffffffff1661174083611268565b73ffffffffffffffffffffffffffffffffffffffff1614159050919050565b50505050565b50505050565b600061178c8473ffffffffffffffffffffffffffffffffffffffff16611b8e565b156118e5578373ffffffffffffffffffffffffffffffffffffffff1663150b7a026117b5610e19565b8786866040518563ffffffff1660e01b81526004016117d79493929190613056565b6020604051808303816000875af192505050801561181357506040513d601f19601f8201168201806040525081019061181091906130b7565b60015b611895573d8060008114611843576040519150601f19603f3d011682016040523d82523d6000602084013e611848565b606091505b50600081510361188d576040517f08c379a000000000000000000000000000000000000000000000000000000000815260040161188490612f81565b60405180910390fd5b805181602001fd5b63150b7a0260e01b7bffffffffffffffffffffffffffffffffffffffffffffffffffffffff1916817bffffffffffffffffffffffffffffffffffffffffffffffffffffffff1916149150506118ea565b600190505b949350505050565b606060405180602001604052806000815250905090565b606061191482610dce565b600061191e6118f2565b9050600081511161193e5760405180602001604052806000815250611969565b8061194884611bb1565b604051602001611959929190612fdd565b6040516020818303038152906040525b915050919050565b600073ffffffffffffffffffffffffffffffffffffffff168273ffffffffffffffffffffffffffffffffffffffff16036119e0576040517f08c379a00000000000000000000000000000000000000000000000000000000081526004016119d790613130565b60405180910390fd5b6119e98161171e565b15611a29576040517f08c379a0000000000000000000000000000000000000000000000000000000008152600401611a209061319c565b60405180910390fd5b611a3760008383600161175f565b611a408161171e565b15611a80576040517f08c379a0000000000000000000000000000000000000000000000000000000008152600401611a779061319c565b60405180910390fd5b6001600360008473ffffffffffffffffffffffffffffffffffffffff1673ffffffffffffffffffffffffffffffffffffffff16815260200190815260200160002060008282540192505081905550816002600083815260200190815260200160002060006101000a81548173ffffffffffffffffffffffffffffffffffffffff021916908373ffffffffffffffffffffffffffffffffffffffff160217905550808273ffffffffffffffffffffffffffffffffffffffff16600073ffffffffffffffffffffffffffffffffffffffff167fddf252ad1be2c89b69c2b068fc378daa952ba7f163c4a11628f55a4df523b3ef60405160405180910390a4611b8a600083836001611765565b5050565b6000808273ffffffffffffffffffffffffffffffffffffffff163b119050919050565b606060006001611bc084611c7f565b01905060008167ffffffffffffffff811115611bdf57611bde611ebc565b5b6040519080825280601f01601f191660200182016040528015611c115781602001600182028036833780820191505090505b509050600082602001820190505b600115611c74578080600190039150507f3031323334353637383961626364656600000000000000000000000000000000600a86061a8153600a8581611c6857611c676131bc565b5b04945060008503611c1f575b819350505050919050565b600080600090507a184f03e93ff9f4daa797ed6e38ed64bf6a1f0100000000000000008310611cdd577a184f03e93ff9f4daa797ed6e38ed64bf6a1f0100000000000000008381611cd357611cd26131bc565b5b0492506040810190505b6d04ee2d6d415b85acef81000000008310611d1a576d04ee2d6d415b85acef81000000008381611d1057611d0f6131bc565b5b0492506020810190505b662386f26fc100008310611d4957662386f26fc100008381611d3f57611d3e6131bc565b5b0492506010810190505b6305f5e1008310611d72576305f5e1008381611d6857611d676131bc565b5b0492506008810190505b6127108310611d97576127108381611d8d57611d8c6131bc565b5b0492506004810190505b60648310611dba5760648381611db057611daf6131bc565b5b0492506002810190505b600a8310611dc9576001810190505b80915050919050565b6000604051905090565b600080fd5b600080fd5b60007fffffffff0000000000000000000000000000000000000000000000000000000082169050919050565b611e1b81611de6565b8114611e2657600080fd5b50565b600081359050611e3881611e12565b92915050565b600060208284031215611e5457611e53611ddc565b5b6000611e6284828501611e29565b91505092915050565b60008115159050919050565b611e8081611e6b565b82525050565b6000602082019050611e9b6000830184611e77565b92915050565b600080fd5b600080fd5b6000601f19601f8301169050919050565b7f4e487b7100000000000000000000000000000000000000000000000000000000600052604160045260246000fd5b611ef482611eab565b810181811067ffffffffffffffff82111715611f1357611f12611ebc565b5b80604052505050565b6000611f26611dd2565b9050611f328282611eeb565b919050565b600067ffffffffffffffff821115611f5257611f51611ebc565b5b611f5b82611eab565b9050602081019050919050565b82818337600083830152505050565b6000611f8a611f8584611f37565b611f1c565b905082815260208101848484011115611fa657611fa5611ea6565b5b611fb1848285611f68565b509392505050565b600082601f830112611fce57611fcd611ea1565b5b8135611fde848260208601611f77565b91505092915050565b6000819050919050565b611ffa81611fe7565b811461200557600080fd5b50565b60008135905061201781611ff1565b92915050565b60008060006060848603121561203657612035611ddc565b5b600084013567ffffffffffffffff81111561205457612053611de1565b5b61206086828701611fb9565b935050602061207186828701612008565b925050604084013567ffffffffffffffff81111561209257612091611de1565b5b61209e86828701611fb9565b9150509250925092565b600081519050919050565b600082825260208201905092915050565b60005b838110156120e25780820151818401526020810190506120c7565b60008484015250505050565b60006120f9826120a8565b61210381856120b3565b93506121138185602086016120c4565b61211c81611eab565b840191505092915050565b6000602082019050818103600083015261214181846120ee565b905092915050565b60006020828403121561215f5761215e611ddc565b5b600061216d84828501612008565b91505092915050565b600073ffffffffffffffffffffffffffffffffffffffff82169050919050565b60006121a182612176565b9050919050565b6121b181612196565b82525050565b60006020820190506121cc60008301846121a8565b92915050565b6121db81612196565b81146121e657600080fd5b50565b6000813590506121f8816121d2565b92915050565b6000806040838503121561221557612214611ddc565b5b6000612223858286016121e9565b925050602061223485828601612008565b9150509250929050565b61224781611fe7565b82525050565b6000602082019050612262600083018461223e565b92915050565b60008060006060848603121561228157612280611ddc565b5b600061228f868287016121e9565b93505060206122a0868287016121e9565b92505060406122b186828701612008565b9150509250925092565b600081519050919050565b600082825260208201905092915050565b6000819050602082019050919050565b600082825260208201905092915050565b6000612303826120a8565b61230d81856122e7565b935061231d8185602086016120c4565b61232681611eab565b840191505092915050565b600061233d83836122f8565b905092915050565b6000602082019050919050565b600061235d826122bb565b61236781856122c6565b935083602082028501612379856122d7565b8060005b858110156123b557848403895281516123968582612331565b94506123a183612345565b925060208a0199505060018101905061237d565b50829750879550505050505092915050565b600060208201905081810360008301526123e18184612352565b905092915050565b6000602082840312156123ff576123fe611ddc565b5b600061240d848285016121e9565b91505092915050565b61241f81611e6b565b811461242a57600080fd5b50565b60008135905061243c81612416565b92915050565b6000806040838503121561245957612458611ddc565b5b6000612467858286016121e9565b92505060206124788582860161242d565b9150509250929050565b600067ffffffffffffffff82111561249d5761249c611ebc565b5b6124a682611eab565b9050602081019050919050565b60006124c66124c184612482565b611f1c565b9050828152602081018484840111156124e2576124e1611ea6565b5b6124ed848285611f68565b509392505050565b600082601f83011261250a57612509611ea1565b5b813561251a8482602086016124b3565b91505092915050565b6000806000806080858703121561253d5761253c611ddc565b5b600061254b878288016121e9565b945050602061255c878288016121e9565b935050604061256d87828801612008565b925050606085013567ffffffffffffffff81111561258e5761258d611de1565b5b61259a878288016124f5565b91505092959194509250565b600080604083850312156125bd576125bc611ddc565b5b60006125cb858286016121e9565b92505060206125dc858286016121e9565b9150509250929050565b7f4e487b7100000000000000000000000000000000000000000000000000000000600052601160045260246000fd5b600061262082611fe7565b91507fffffffffffffffffffffffffffffffffffffffffffffffffffffffffffffffff8203612652576126516125e6565b5b600182019050919050565b7f4e487b7100000000000000000000000000000000000000000000000000000000600052602260045260246000fd5b600060028204905060018216806126a457607f821691505b6020821081036126b7576126b661265d565b5b50919050565b60008190508160005260206000209050919050565b60006020601f8301049050919050565b600082821b905092915050565b60006008830261271f7fffffffffffffffffffffffffffffffffffffffffffffffffffffffffffffffff826126e2565b61272986836126e2565b95508019841693508086168417925050509392505050565b6000819050919050565b600061276661276161275c84611fe7565b612741565b611fe7565b9050919050565b6000819050919050565b6127808361274b565b61279461278c8261276d565b8484546126ef565b825550505050565b600090565b6127a961279c565b6127b4818484612777565b505050565b5b818110156127d8576127cd6000826127a1565b6001810190506127ba565b5050565b601f82111561281d576127ee816126bd565b6127f7846126d2565b81016020851015612806578190505b61281a612812856126d2565b8301826127b9565b50505b505050565b600082821c905092915050565b600061284060001984600802612822565b1980831691505092915050565b6000612859838361282f565b9150826002028217905092915050565b612872826120a8565b67ffffffffffffffff81111561288b5761288a611ebc565b5b612895825461268c565b6128a08282856127dc565b600060209050601f8311600181146128d357600084156128c1578287015190505b6128cb858261284d565b865550612933565b601f1984166128e1866126bd565b60005b82811015612909578489015182556001820191506020850194506020810190506128e4565b868310156129265784890151612922601f89168261282f565b8355505b6001600288020188555050505b505050505050565b7f4552433732313a20617070726f76616c20746f2063757272656e74206f776e6560008201527f7200000000000000000000000000000000000000000000000000000000000000602082015250565b60006129976021836120b3565b91506129a28261293b565b604082019050919050565b600060208201905081810360008301526129c68161298a565b9050919050565b7f4552433732313a20617070726f76652063616c6c6572206973206e6f7420746f60008201527f6b656e206f776e6572206f7220617070726f76656420666f7220616c6c000000602082015250565b6000612a29603d836120b3565b9150612a34826129cd565b604082019050919050565b60006020820190508181036000830152612a5881612a1c565b9050919050565b7f4552433732313a2063616c6c6572206973206e6f7420746f6b656e206f776e6560008201527f72206f7220617070726f76656400000000000000000000000000000000000000602082015250565b6000612abb602d836120b3565b9150612ac682612a5f565b604082019050919050565b60006020820190508181036000830152612aea81612aae565b9050919050565b7f4552433732313a20696e76616c696420746f6b656e2049440000000000000000600082015250565b6000612b276018836120b3565b9150612b3282612af1565b602082019050919050565b60006020820190508181036000830152612b5681612b1a565b9050919050565b7f4552433732313a2061646472657373207a65726f206973206e6f74206120766160008201527f6c6964206f776e65720000000000000000000000000000000000000000000000602082015250565b6000612bb96029836120b3565b9150612bc482612b5d565b604082019050919050565b60006020820190508181036000830152612be881612bac565b9050919050565b7f4f776e61626c653a206e6577206f776e657220697320746865207a65726f206160008201527f6464726573730000000000000000000000000000000000000000000000000000602082015250565b6000612c4b6026836120b3565b9150612c5682612bef565b604082019050919050565b60006020820190508181036000830152612c7a81612c3e565b9050919050565b7f45524337323155524953746f726167653a2055524920736574206f66206e6f6e60008201527f6578697374656e7420746f6b656e000000000000000000000000000000000000602082015250565b6000612cdd602e836120b3565b9150612ce882612c81565b604082019050919050565b60006020820190508181036000830152612d0c81612cd0565b9050919050565b7f4552433732313a207472616e736665722066726f6d20696e636f72726563742060008201527f6f776e6572000000000000000000000000000000000000000000000000000000602082015250565b6000612d6f6025836120b3565b9150612d7a82612d13565b604082019050919050565b60006020820190508181036000830152612d9e81612d62565b9050919050565b7f4552433732313a207472616e7366657220746f20746865207a65726f2061646460008201527f7265737300000000000000000000000000000000000000000000000000000000602082015250565b6000612e016024836120b3565b9150612e0c82612da5565b604082019050919050565b60006020820190508181036000830152612e3081612df4565b9050919050565b7f4f776e61626c653a2063616c6c6572206973206e6f7420746865206f776e6572600082015250565b6000612e6d6020836120b3565b9150612e7882612e37565b602082019050919050565b60006020820190508181036000830152612e9c81612e60565b9050919050565b7f4552433732313a20617070726f766520746f2063616c6c657200000000000000600082015250565b6000612ed96019836120b3565b9150612ee482612ea3565b602082019050919050565b60006020820190508181036000830152612f0881612ecc565b9050919050565b7f4552433732313a207472616e7366657220746f206e6f6e20455243373231526560008201527f63656976657220696d706c656d656e7465720000000000000000000000000000602082015250565b6000612f6b6032836120b3565b9150612f7682612f0f565b604082019050919050565b60006020820190508181036000830152612f9a81612f5e565b9050919050565b600081905092915050565b6000612fb7826120a8565b612fc18185612fa1565b9350612fd18185602086016120c4565b80840191505092915050565b6000612fe98285612fac565b9150612ff58284612fac565b91508190509392505050565b600081519050919050565b600082825260208201905092915050565b600061302882613001565b613032818561300c565b93506130428185602086016120c4565b61304b81611eab565b840191505092915050565b600060808201905061306b60008301876121a8565b61307860208301866121a8565b613085604083018561223e565b8181036060830152613097818461301d565b905095945050505050565b6000815190506130b181611e12565b92915050565b6000602082840312156130cd576130cc611ddc565b5b60006130db848285016130a2565b91505092915050565b7f4552433732313a206d696e7420746f20746865207a65726f2061646472657373600082015250565b600061311a6020836120b3565b9150613125826130e4565b602082019050919050565b600060208201905081810360008301526131498161310d565b9050919050565b7f4552433732313a20746f6b656e20616c7265616479206d696e74656400000000600082015250565b6000613186601c836120b3565b915061319182613150565b602082019050919050565b600060208201905081810360008301526131b581613179565b9050919050565b7f4e487b7100000000000000000000000000000000000000000000000000000000600052601260045260246000fdfea264697066735822122006064599b96242716aa86bcaaec409718addab0bf3fb6f2db0e189fc161f59b064736f6c63430008130033",
  "linkReferences": {},
  "deployedLinkReferences": {}
}