{
  "_format": "hh-sol-artifact-1",
  "contractName": "NFT",
  "sourceName": "contracts/NFT.sol",
  "abi": [
    {
      "inputs": [],
      "stateMutability": "nonpayable",
      "type": "constructor"
    },
    {
      "anonymous": false,
      "inputs": [
        {
          "indexed": true,
          "internalType": "address",
          "name": "owner",
          "type": "address"
        },
        {
          "indexed": true,
          "internalType": "address",
          "name": "approved",
          "type": "address"
        },
        {
          "indexed": true,
          "internalType": "uint256",
          "name": "tokenId",
          "type": "uint256"
        }
      ],
      "name": "Approval",
      "type": "event"
    },
    {
      "anonymous": false,
      "inputs": [
        {
          "indexed": true,
          "internalType": "address",
          "name": "owner",
          "type": "address"
        },
        {
          "indexed": true,
          "internalType": "address",
          "name": "operator",
          "type": "address"
        },
        {
          "indexed": false,
          "internalType": "bool",
          "name": "approved",
          "type": "bool"
        }
      ],
      "name": "ApprovalForAll",
      "type": "event"
    },
    {
      "anonymous": false,
      "inputs": [
        {
          "indexed": true,
          "internalType": "address",
          "name": "previousOwner",
          "type": "address"
        },
        {
          "indexed": true,
          "internalType": "address",
          "name": "newOwner",
          "type": "address"
        }
      ],
      "name": "OwnershipTransferred",
      "type": "event"
    },
    {
      "anonymous": false,
      "inputs": [
        {
          "indexed": true,
          "internalType": "address",
          "name": "from",
          "type": "address"
        },
        {
          "indexed": true,
          "internalType": "address",
          "name": "to",
          "type": "address"
        },
        {
          "indexed": true,
          "internalType": "uint256",
          "name": "tokenId",
          "type": "uint256"
        }
      ],
      "name": "Transfer",
      "type": "event"
    },
    {
      "inputs": [
        {
          "internalType": "address",
          "name": "to",
          "type": "address"
        },
        {
          "internalType": "uint256",
          "name": "tokenId",
          "type": "uint256"
        }
      ],
      "name": "approve",
      "outputs": [],
      "stateMutability": "nonpayable",
      "type": "function"
    },
    {
      "inputs": [
        {
          "internalType": "address",
          "name": "owner",
          "type": "address"
        }
      ],
      "name": "balanceOf",
      "outputs": [
        {
          "internalType": "uint256",
          "name": "",
          "type": "uint256"
        }
      ],
      "stateMutability": "view",
      "type": "function"
    },
    {
      "inputs": [
        {
          "internalType": "uint256",
          "name": "tokenId",
          "type": "uint256"
        }
      ],
      "name": "getApproved",
      "outputs": [
        {
          "internalType": "address",
          "name": "",
          "type": "address"
        }
      ],
      "stateMutability": "view",
      "type": "function"
    },
    {
      "inputs": [
        {
          "internalType": "address",
          "name": "owner",
          "type": "address"
        },
        {
          "internalType": "address",
          "name": "operator",
          "type": "address"
        }
      ],
      "name": "isApprovedForAll",
      "outputs": [
        {
          "internalType": "bool",
          "name": "",
          "type": "bool"
        }
      ],
      "stateMutability": "view",
      "type": "function"
    },
    {
      "inputs": [
        {
          "internalType": "string",
          "name": "_tokenURI",
          "type": "string"
        },
        {
          "internalType": "uint256",
          "name": "_tokenId",
          "type": "uint256"
        }
      ],
      "name": "mint",
      "outputs": [],
      "stateMutability": "nonpayable",
      "type": "function"
    },
    {
      "inputs": [],
      "name": "name",
      "outputs": [
        {
          "internalType": "string",
          "name": "",
          "type": "string"
        }
      ],
      "stateMutability": "view",
      "type": "function"
    },
    {
      "inputs": [],
      "name": "owner",
      "outputs": [
        {
          "internalType": "address",
          "name": "",
          "type": "address"
        }
      ],
      "stateMutability": "view",
      "type": "function"
    },
    {
      "inputs": [
        {
          "internalType": "uint256",
          "name": "tokenId",
          "type": "uint256"
        }
      ],
      "name": "ownerOf",
      "outputs": [
        {
          "internalType": "address",
          "name": "",
          "type": "address"
        }
      ],
      "stateMutability": "view",
      "type": "function"
    },
    {
      "inputs": [],
      "name": "renounceOwnership",
      "outputs": [],
      "stateMutability": "nonpayable",
      "type": "function"
    },
    {
      "inputs": [
        {
          "internalType": "address",
          "name": "from",
          "type": "address"
        },
        {
          "internalType": "address",
          "name": "to",
          "type": "address"
        },
        {
          "internalType": "uint256",
          "name": "tokenId",
          "type": "uint256"
        }
      ],
      "name": "safeTransferFrom",
      "outputs": [],
      "stateMutability": "nonpayable",
      "type": "function"
    },
    {
      "inputs": [
        {
          "internalType": "address",
          "name": "from",
          "type": "address"
        },
        {
          "internalType": "address",
          "name": "to",
          "type": "address"
        },
        {
          "internalType": "uint256",
          "name": "tokenId",
          "type": "uint256"
        },
        {
          "internalType": "bytes",
          "name": "data",
          "type": "bytes"
        }
      ],
      "name": "safeTransferFrom",
      "outputs": [],
      "stateMutability": "nonpayable",
      "type": "function"
    },
    {
      "inputs": [
        {
          "internalType": "address",
          "name": "operator",
          "type": "address"
        },
        {
          "internalType": "bool",
          "name": "approved",
          "type": "bool"
        }
      ],
      "name": "setApprovalForAll",
      "outputs": [],
      "stateMutability": "nonpayable",
      "type": "function"
    },
    {
      "inputs": [
        {
          "internalType": "bytes4",
          "name": "interfaceId",
          "type": "bytes4"
        }
      ],
      "name": "supportsInterface",
      "outputs": [
        {
          "internalType": "bool",
          "name": "",
          "type": "bool"
        }
      ],
      "stateMutability": "view",
      "type": "function"
    },
    {
      "inputs": [],
      "name": "symbol",
      "outputs": [
        {
          "internalType": "string",
          "name": "",
          "type": "string"
        }
      ],
      "stateMutability": "view",
      "type": "function"
    },
    {
      "inputs": [
        {
          "internalType": "uint256",
          "name": "tokenId",
          "type": "uint256"
        }
      ],
      "name": "tokenURI",
      "outputs": [
        {
          "internalType": "string",
          "name": "",
          "type": "string"
        }
      ],
      "stateMutability": "view",
      "type": "function"
    },
    {
      "inputs": [],
      "name": "totalSupply",
      "outputs": [
        {
          "internalType": "uint256",
          "name": "",
          "type": "uint256"
        }
      ],
      "stateMutability": "view",
      "type": "function"
    },
    {
      "inputs": [
        {
          "internalType": "address",
          "name": "from",
          "type": "address"
        },
        {
          "internalType": "address",
          "name": "to",
          "type": "address"
        },
        {
          "internalType": "uint256",
          "name": "tokenId",
          "type": "uint256"
        }
      ],
      "name": "transferFrom",
      "outputs": [],
      "stateMutability": "nonpayable",
      "type": "function"
    },
    {
      "inputs": [
        {
          "internalType": "address",
          "name": "newOwner",
          "type": "address"
        }
      ],
      "name": "transferOwnership",
      "outputs": [],
      "stateMutability": "nonpayable",
      "type": "function"
    }
  ],
  "bytecode": "0x60806040523480156200001157600080fd5b506040518060400160405280600581526020017f4d794e46540000000000000000000000000000000000000000000000000000008152506040518060400160405280600381526020017f4e4654000000000000000000000000000000000000000000000000000000000081525081600090816200008f919062000412565b508060019081620000a1919062000412565b505050620000c4620000b8620000ca60201b60201c565b620000d260201b60201c565b620004f9565b600033905090565b6000600760009054906101000a900473ffffffffffffffffffffffffffffffffffffffff16905081600760006101000a81548173ffffffffffffffffffffffffffffffffffffffff021916908373ffffffffffffffffffffffffffffffffffffffff1602179055508173ffffffffffffffffffffffffffffffffffffffff168173ffffffffffffffffffffffffffffffffffffffff167f8be0079c531659141344cd1fd0a4f28419497f9722a3daafe3b4186f6b6457e060405160405180910390a35050565b600081519050919050565b7f4e487b7100000000000000000000000000000000000000000000000000000000600052604160045260246000fd5b7f4e487b7100000000000000000000000000000000000000000000000000000000600052602260045260246000fd5b600060028204905060018216806200021a57607f821691505b60208210810362000230576200022f620001d2565b5b50919050565b60008190508160005260206000209050919050565b60006020601f8301049050919050565b600082821b905092915050565b6000600883026200029a7fffffffffffffffffffffffffffffffffffffffffffffffffffffffffffffffff826200025b565b620002a686836200025b565b95508019841693508086168417925050509392505050565b6000819050919050565b6000819050919050565b6000620002f3620002ed620002e784620002be565b620002c8565b620002be565b9050919050565b6000819050919050565b6200030f83620002d2565b620003276200031e82620002fa565b84845462000268565b825550505050565b600090565b6200033e6200032f565b6200034b81848462000304565b505050565b5b8181101562000373576200036760008262000334565b60018101905062000351565b5050565b601f821115620003c2576200038c8162000236565b62000397846200024b565b81016020851015620003a7578190505b620003bf620003b6856200024b565b83018262000350565b50505b505050565b600082821c905092915050565b6000620003e760001984600802620003c7565b1980831691505092915050565b6000620004028383620003d4565b9150826002028217905092915050565b6200041d8262000198565b67ffffffffffffffff811115620004395762000438620001a3565b5b62000445825462000201565b6200045282828562000377565b600060209050601f8311600181146200048a576000841562000475578287015190505b620004818582620003f4565b865550620004f1565b601f1984166200049a8662000236565b60005b82811015620004c4578489015182556001820191506020850194506020810190506200049d565b86831015620004e45784890151620004e0601f891682620003d4565b8355505b6001600288020188555050505b505050505050565b612ea580620005096000396000f3fe608060405234801561001057600080fd5b50600436106101165760003560e01c806370a08231116100a2578063a22cb46511610071578063a22cb465146102cd578063b88d4fde146102e9578063c87b56dd14610305578063e985e9c514610335578063f2fde38b1461036557610116565b806370a0823114610257578063715018a6146102875780638da5cb5b1461029157806395d89b41146102af57610116565b8063095ea7b3116100e9578063095ea7b3146101b557806318160ddd146101d157806323b872dd146101ef57806342842e0e1461020b5780636352211e1461022757610116565b806301ffc9a71461011b578063056b01ce1461014b57806306fdde0314610167578063081812fc14610185575b600080fd5b61013560048036038101906101309190611c1f565b610381565b6040516101429190611c67565b60405180910390f35b61016560048036038101906101609190611dfe565b610463565b005b61016f610493565b60405161017c9190611ed9565b60405180910390f35b61019f600480360381019061019a9190611efb565b610525565b6040516101ac9190611f69565b60405180910390f35b6101cf60048036038101906101ca9190611fb0565b61056b565b005b6101d9610682565b6040516101e69190611fff565b60405180910390f35b6102096004803603810190610204919061201a565b61068c565b005b6102256004803603810190610220919061201a565b6106ec565b005b610241600480360381019061023c9190611efb565b61070c565b60405161024e9190611f69565b60405180910390f35b610271600480360381019061026c919061206d565b610792565b60405161027e9190611fff565b60405180910390f35b61028f610849565b005b61029961085d565b6040516102a69190611f69565b60405180910390f35b6102b7610887565b6040516102c49190611ed9565b60405180910390f35b6102e760048036038101906102e291906120c6565b610919565b005b61030360048036038101906102fe91906121a7565b61092f565b005b61031f600480360381019061031a9190611efb565b610991565b60405161032c9190611ed9565b60405180910390f35b61034f600480360381019061034a919061222a565b6109a3565b60405161035c9190611c67565b60405180910390f35b61037f600480360381019061037a919061206d565b610a37565b005b60007f80ac58cd000000000000000000000000000000000000000000000000000000007bffffffffffffffffffffffffffffffffffffffffffffffffffffffff1916827bffffffffffffffffffffffffffffffffffffffffffffffffffffffff1916148061044c57507f5b5e139f000000000000000000000000000000000000000000000000000000007bffffffffffffffffffffffffffffffffffffffffffffffffffffffff1916827bffffffffffffffffffffffffffffffffffffffffffffffffffffffff1916145b8061045c575061045b82610aba565b5b9050919050565b6008600081548092919061047690612299565b91905055506104853382610b24565b61048f8183610b42565b5050565b6060600080546104a290612310565b80601f01602080910402602001604051908101604052809291908181526020018280546104ce90612310565b801561051b5780601f106104f05761010080835404028352916020019161051b565b820191906000526020600020905b8154815290600101906020018083116104fe57829003601f168201915b5050505050905090565b600061053082610baf565b6004600083815260200190815260200160002060009054906101000a900473ffffffffffffffffffffffffffffffffffffffff169050919050565b60006105768261070c565b90508073ffffffffffffffffffffffffffffffffffffffff168373ffffffffffffffffffffffffffffffffffffffff16036105e6576040517f08c379a00000000000000000000000000000000000000000000000000000000081526004016105dd906123b3565b60405180910390fd5b8073ffffffffffffffffffffffffffffffffffffffff16610605610bfa565b73ffffffffffffffffffffffffffffffffffffffff16148061063457506106338161062e610bfa565b6109a3565b5b610673576040517f08c379a000000000000000000000000000000000000000000000000000000000815260040161066a90612445565b60405180910390fd5b61067d8383610c02565b505050565b6000600854905090565b61069d610697610bfa565b82610cbb565b6106dc576040517f08c379a00000000000000000000000000000000000000000000000000000000081526004016106d3906124d7565b60405180910390fd5b6106e7838383610d50565b505050565b6107078383836040518060200160405280600081525061092f565b505050565b60008061071883611049565b9050600073ffffffffffffffffffffffffffffffffffffffff168173ffffffffffffffffffffffffffffffffffffffff1603610789576040517f08c379a000000000000000000000000000000000000000000000000000000000815260040161078090612543565b60405180910390fd5b80915050919050565b60008073ffffffffffffffffffffffffffffffffffffffff168273ffffffffffffffffffffffffffffffffffffffff1603610802576040517f08c379a00000000000000000000000000000000000000000000000000000000081526004016107f9906125d5565b60405180910390fd5b600360008373ffffffffffffffffffffffffffffffffffffffff1673ffffffffffffffffffffffffffffffffffffffff168152602001908152602001600020549050919050565b610851611086565b61085b6000611104565b565b6000600760009054906101000a900473ffffffffffffffffffffffffffffffffffffffff16905090565b60606001805461089690612310565b80601f01602080910402602001604051908101604052809291908181526020018280546108c290612310565b801561090f5780601f106108e45761010080835404028352916020019161090f565b820191906000526020600020905b8154815290600101906020018083116108f257829003601f168201915b5050505050905090565b61092b610924610bfa565b83836111ca565b5050565b61094061093a610bfa565b83610cbb565b61097f576040517f08c379a0000000000000000000000000000000000000000000000000000000008152600401610976906124d7565b60405180910390fd5b61098b84848484611336565b50505050565b606061099c82611392565b9050919050565b6000600560008473ffffffffffffffffffffffffffffffffffffffff1673ffffffffffffffffffffffffffffffffffffffff16815260200190815260200160002060008373ffffffffffffffffffffffffffffffffffffffff1673ffffffffffffffffffffffffffffffffffffffff16815260200190815260200160002060009054906101000a900460ff16905092915050565b610a3f611086565b600073ffffffffffffffffffffffffffffffffffffffff168173ffffffffffffffffffffffffffffffffffffffff1603610aae576040517f08c379a0000000000000000000000000000000000000000000000000000000008152600401610aa590612667565b60405180910390fd5b610ab781611104565b50565b60007f01ffc9a7000000000000000000000000000000000000000000000000000000007bffffffffffffffffffffffffffffffffffffffffffffffffffffffff1916827bffffffffffffffffffffffffffffffffffffffffffffffffffffffff1916149050919050565b610b3e8282604051806020016040528060008152506114a4565b5050565b610b4b826114ff565b610b8a576040517f08c379a0000000000000000000000000000000000000000000000000000000008152600401610b81906126f9565b60405180910390fd5b80600660008481526020019081526020016000209081610baa91906128c5565b505050565b610bb8816114ff565b610bf7576040517f08c379a0000000000000000000000000000000000000000000000000000000008152600401610bee90612543565b60405180910390fd5b50565b600033905090565b816004600083815260200190815260200160002060006101000a81548173ffffffffffffffffffffffffffffffffffffffff021916908373ffffffffffffffffffffffffffffffffffffffff160217905550808273ffffffffffffffffffffffffffffffffffffffff16610c758361070c565b73ffffffffffffffffffffffffffffffffffffffff167f8c5be1e5ebec7d5bd14f71427d1e84f3dd0314c0f7b2291e5b200ac8c7c3b92560405160405180910390a45050565b600080610cc78361070c565b90508073ffffffffffffffffffffffffffffffffffffffff168473ffffffffffffffffffffffffffffffffffffffff161480610d095750610d0881856109a3565b5b80610d4757508373ffffffffffffffffffffffffffffffffffffffff16610d2f84610525565b73ffffffffffffffffffffffffffffffffffffffff16145b91505092915050565b8273ffffffffffffffffffffffffffffffffffffffff16610d708261070c565b73ffffffffffffffffffffffffffffffffffffffff1614610dc6576040517f08c379a0000000000000000000000000000000000000000000000000000000008152600401610dbd90612a09565b60405180910390fd5b600073ffffffffffffffffffffffffffffffffffffffff168273ffffffffffffffffffffffffffffffffffffffff1603610e35576040517f08c379a0000000000000000000000000000000000000000000000000000000008152600401610e2c90612a9b565b60405180910390fd5b610e428383836001611540565b8273ffffffffffffffffffffffffffffffffffffffff16610e628261070c565b73ffffffffffffffffffffffffffffffffffffffff1614610eb8576040517f08c379a0000000000000000000000000000000000000000000000000000000008152600401610eaf90612a09565b60405180910390fd5b6004600082815260200190815260200160002060006101000a81549073ffffffffffffffffffffffffffffffffffffffff02191690556001600360008573ffffffffffffffffffffffffffffffffffffffff1673ffffffffffffffffffffffffffffffffffffffff168152602001908152602001600020600082825403925050819055506001600360008473ffffffffffffffffffffffffffffffffffffffff1673ffffffffffffffffffffffffffffffffffffffff16815260200190815260200160002060008282540192505081905550816002600083815260200190815260200160002060006101000a81548173ffffffffffffffffffffffffffffffffffffffff021916908373ffffffffffffffffffffffffffffffffffffffff160217905550808273ffffffffffffffffffffffffffffffffffffffff168473ffffffffffffffffffffffffffffffffffffffff167fddf252ad1be2c89b69c2b068fc378daa952ba7f163c4a11628f55a4df523b3ef60405160405180910390a46110448383836001611546565b505050565b60006002600083815260200190815260200160002060009054906101000a900473ffffffffffffffffffffffffffffffffffffffff169050919050565b61108e610bfa565b73ffffffffffffffffffffffffffffffffffffffff166110ac61085d565b73ffffffffffffffffffffffffffffffffffffffff1614611102576040517f08c379a00000000000000000000000000000000000000000000000000000000081526004016110f990612b07565b60405180910390fd5b565b6000600760009054906101000a900473ffffffffffffffffffffffffffffffffffffffff16905081600760006101000a81548173ffffffffffffffffffffffffffffffffffffffff021916908373ffffffffffffffffffffffffffffffffffffffff1602179055508173ffffffffffffffffffffffffffffffffffffffff168173ffffffffffffffffffffffffffffffffffffffff167f8be0079c531659141344cd1fd0a4f28419497f9722a3daafe3b4186f6b6457e060405160405180910390a35050565b8173ffffffffffffffffffffffffffffffffffffffff168373ffffffffffffffffffffffffffffffffffffffff1603611238576040517f08c379a000000000000000000000000000000000000000000000000000000000815260040161122f90612b73565b60405180910390fd5b80600560008573ffffffffffffffffffffffffffffffffffffffff1673ffffffffffffffffffffffffffffffffffffffff16815260200190815260200160002060008473ffffffffffffffffffffffffffffffffffffffff1673ffffffffffffffffffffffffffffffffffffffff16815260200190815260200160002060006101000a81548160ff0219169083151502179055508173ffffffffffffffffffffffffffffffffffffffff168373ffffffffffffffffffffffffffffffffffffffff167f17307eab39ab6107e8899845ad3d59bd9653f200f220920489ca2b5937696c31836040516113299190611c67565b60405180910390a3505050565b611341848484610d50565b61134d8484848461154c565b61138c576040517f08c379a000000000000000000000000000000000000000000000000000000000815260040161138390612c05565b60405180910390fd5b50505050565b606061139d82610baf565b60006006600084815260200190815260200160002080546113bd90612310565b80601f01602080910402602001604051908101604052809291908181526020018280546113e990612310565b80156114365780601f1061140b57610100808354040283529160200191611436565b820191906000526020600020905b81548152906001019060200180831161141957829003601f168201915b5050505050905060006114476116d3565b9050600081510361145c57819250505061149f565b600082511115611491578082604051602001611479929190612c61565b6040516020818303038152906040529250505061149f565b61149a846116ea565b925050505b919050565b6114ae8383611752565b6114bb600084848461154c565b6114fa576040517f08c379a00000000000000000000000000000000000000000000000000000000081526004016114f190612c05565b60405180910390fd5b505050565b60008073ffffffffffffffffffffffffffffffffffffffff1661152183611049565b73ffffffffffffffffffffffffffffffffffffffff1614159050919050565b50505050565b50505050565b600061156d8473ffffffffffffffffffffffffffffffffffffffff1661196f565b156116c6578373ffffffffffffffffffffffffffffffffffffffff1663150b7a02611596610bfa565b8786866040518563ffffffff1660e01b81526004016115b89493929190612cda565b6020604051808303816000875af19250505080156115f457506040513d601f19601f820116820180604052508101906115f19190612d3b565b60015b611676573d8060008114611624576040519150601f19603f3d011682016040523d82523d6000602084013e611629565b606091505b50600081510361166e576040517f08c379a000000000000000000000000000000000000000000000000000000000815260040161166590612c05565b60405180910390fd5b805181602001fd5b63150b7a0260e01b7bffffffffffffffffffffffffffffffffffffffffffffffffffffffff1916817bffffffffffffffffffffffffffffffffffffffffffffffffffffffff1916149150506116cb565b600190505b949350505050565b606060405180602001604052806000815250905090565b60606116f582610baf565b60006116ff6116d3565b9050600081511161171f576040518060200160405280600081525061174a565b8061172984611992565b60405160200161173a929190612c61565b6040516020818303038152906040525b915050919050565b600073ffffffffffffffffffffffffffffffffffffffff168273ffffffffffffffffffffffffffffffffffffffff16036117c1576040517f08c379a00000000000000000000000000000000000000000000000000000000081526004016117b890612db4565b60405180910390fd5b6117ca816114ff565b1561180a576040517f08c379a000000000000000000000000000000000000000000000000000000000815260040161180190612e20565b60405180910390fd5b611818600083836001611540565b611821816114ff565b15611861576040517f08c379a000000000000000000000000000000000000000000000000000000000815260040161185890612e20565b60405180910390fd5b6001600360008473ffffffffffffffffffffffffffffffffffffffff1673ffffffffffffffffffffffffffffffffffffffff16815260200190815260200160002060008282540192505081905550816002600083815260200190815260200160002060006101000a81548173ffffffffffffffffffffffffffffffffffffffff021916908373ffffffffffffffffffffffffffffffffffffffff160217905550808273ffffffffffffffffffffffffffffffffffffffff16600073ffffffffffffffffffffffffffffffffffffffff167fddf252ad1be2c89b69c2b068fc378daa952ba7f163c4a11628f55a4df523b3ef60405160405180910390a461196b600083836001611546565b5050565b6000808273ffffffffffffffffffffffffffffffffffffffff163b119050919050565b6060600060016119a184611a60565b01905060008167ffffffffffffffff8111156119c0576119bf611c9d565b5b6040519080825280601f01601f1916602001820160405280156119f25781602001600182028036833780820191505090505b509050600082602001820190505b600115611a55578080600190039150507f3031323334353637383961626364656600000000000000000000000000000000600a86061a8153600a8581611a4957611a48612e40565b5b04945060008503611a00575b819350505050919050565b600080600090507a184f03e93ff9f4daa797ed6e38ed64bf6a1f0100000000000000008310611abe577a184f03e93ff9f4daa797ed6e38ed64bf6a1f0100000000000000008381611ab457611ab3612e40565b5b0492506040810190505b6d04ee2d6d415b85acef81000000008310611afb576d04ee2d6d415b85acef81000000008381611af157611af0612e40565b5b0492506020810190505b662386f26fc100008310611b2a57662386f26fc100008381611b2057611b1f612e40565b5b0492506010810190505b6305f5e1008310611b53576305f5e1008381611b4957611b48612e40565b5b0492506008810190505b6127108310611b78576127108381611b6e57611b6d612e40565b5b0492506004810190505b60648310611b9b5760648381611b9157611b90612e40565b5b0492506002810190505b600a8310611baa576001810190505b80915050919050565b6000604051905090565b600080fd5b600080fd5b60007fffffffff0000000000000000000000000000000000000000000000000000000082169050919050565b611bfc81611bc7565b8114611c0757600080fd5b50565b600081359050611c1981611bf3565b92915050565b600060208284031215611c3557611c34611bbd565b5b6000611c4384828501611c0a565b91505092915050565b60008115159050919050565b611c6181611c4c565b82525050565b6000602082019050611c7c6000830184611c58565b92915050565b600080fd5b600080fd5b6000601f19601f8301169050919050565b7f4e487b7100000000000000000000000000000000000000000000000000000000600052604160045260246000fd5b611cd582611c8c565b810181811067ffffffffffffffff82111715611cf457611cf3611c9d565b5b80604052505050565b6000611d07611bb3565b9050611d138282611ccc565b919050565b600067ffffffffffffffff821115611d3357611d32611c9d565b5b611d3c82611c8c565b9050602081019050919050565b82818337600083830152505050565b6000611d6b611d6684611d18565b611cfd565b905082815260208101848484011115611d8757611d86611c87565b5b611d92848285611d49565b509392505050565b600082601f830112611daf57611dae611c82565b5b8135611dbf848260208601611d58565b91505092915050565b6000819050919050565b611ddb81611dc8565b8114611de657600080fd5b50565b600081359050611df881611dd2565b92915050565b60008060408385031215611e1557611e14611bbd565b5b600083013567ffffffffffffffff811115611e3357611e32611bc2565b5b611e3f85828601611d9a565b9250506020611e5085828601611de9565b9150509250929050565b600081519050919050565b600082825260208201905092915050565b60005b83811015611e94578082015181840152602081019050611e79565b60008484015250505050565b6000611eab82611e5a565b611eb58185611e65565b9350611ec5818560208601611e76565b611ece81611c8c565b840191505092915050565b60006020820190508181036000830152611ef38184611ea0565b905092915050565b600060208284031215611f1157611f10611bbd565b5b6000611f1f84828501611de9565b91505092915050565b600073ffffffffffffffffffffffffffffffffffffffff82169050919050565b6000611f5382611f28565b9050919050565b611f6381611f48565b82525050565b6000602082019050611f7e6000830184611f5a565b92915050565b611f8d81611f48565b8114611f9857600080fd5b50565b600081359050611faa81611f84565b92915050565b60008060408385031215611fc757611fc6611bbd565b5b6000611fd585828601611f9b565b9250506020611fe685828601611de9565b9150509250929050565b611ff981611dc8565b82525050565b60006020820190506120146000830184611ff0565b92915050565b60008060006060848603121561203357612032611bbd565b5b600061204186828701611f9b565b935050602061205286828701611f9b565b925050604061206386828701611de9565b9150509250925092565b60006020828403121561208357612082611bbd565b5b600061209184828501611f9b565b91505092915050565b6120a381611c4c565b81146120ae57600080fd5b50565b6000813590506120c08161209a565b92915050565b600080604083850312156120dd576120dc611bbd565b5b60006120eb85828601611f9b565b92505060206120fc858286016120b1565b9150509250929050565b600067ffffffffffffffff82111561212157612120611c9d565b5b61212a82611c8c565b9050602081019050919050565b600061214a61214584612106565b611cfd565b90508281526020810184848401111561216657612165611c87565b5b612171848285611d49565b509392505050565b600082601f83011261218e5761218d611c82565b5b813561219e848260208601612137565b91505092915050565b600080600080608085870312156121c1576121c0611bbd565b5b60006121cf87828801611f9b565b94505060206121e087828801611f9b565b93505060406121f187828801611de9565b925050606085013567ffffffffffffffff81111561221257612211611bc2565b5b61221e87828801612179565b91505092959194509250565b6000806040838503121561224157612240611bbd565b5b600061224f85828601611f9b565b925050602061226085828601611f9b565b9150509250929050565b7f4e487b7100000000000000000000000000000000000000000000000000000000600052601160045260246000fd5b60006122a482611dc8565b91507fffffffffffffffffffffffffffffffffffffffffffffffffffffffffffffffff82036122d6576122d561226a565b5b600182019050919050565b7f4e487b7100000000000000000000000000000000000000000000000000000000600052602260045260246000fd5b6000600282049050600182168061232857607f821691505b60208210810361233b5761233a6122e1565b5b50919050565b7f4552433732313a20617070726f76616c20746f2063757272656e74206f776e6560008201527f7200000000000000000000000000000000000000000000000000000000000000602082015250565b600061239d602183611e65565b91506123a882612341565b604082019050919050565b600060208201905081810360008301526123cc81612390565b9050919050565b7f4552433732313a20617070726f76652063616c6c6572206973206e6f7420746f60008201527f6b656e206f776e6572206f7220617070726f76656420666f7220616c6c000000602082015250565b600061242f603d83611e65565b915061243a826123d3565b604082019050919050565b6000602082019050818103600083015261245e81612422565b9050919050565b7f4552433732313a2063616c6c6572206973206e6f7420746f6b656e206f776e6560008201527f72206f7220617070726f76656400000000000000000000000000000000000000602082015250565b60006124c1602d83611e65565b91506124cc82612465565b604082019050919050565b600060208201905081810360008301526124f0816124b4565b9050919050565b7f4552433732313a20696e76616c696420746f6b656e2049440000000000000000600082015250565b600061252d601883611e65565b9150612538826124f7565b602082019050919050565b6000602082019050818103600083015261255c81612520565b9050919050565b7f4552433732313a2061646472657373207a65726f206973206e6f74206120766160008201527f6c6964206f776e65720000000000000000000000000000000000000000000000602082015250565b60006125bf602983611e65565b91506125ca82612563565b604082019050919050565b600060208201905081810360008301526125ee816125b2565b9050919050565b7f4f776e61626c653a206e6577206f776e657220697320746865207a65726f206160008201527f6464726573730000000000000000000000000000000000000000000000000000602082015250565b6000612651602683611e65565b915061265c826125f5565b604082019050919050565b6000602082019050818103600083015261268081612644565b9050919050565b7f45524337323155524953746f726167653a2055524920736574206f66206e6f6e60008201527f6578697374656e7420746f6b656e000000000000000000000000000000000000602082015250565b60006126e3602e83611e65565b91506126ee82612687565b604082019050919050565b60006020820190508181036000830152612712816126d6565b9050919050565b60008190508160005260206000209050919050565b60006020601f8301049050919050565b600082821b905092915050565b60006008830261277b7fffffffffffffffffffffffffffffffffffffffffffffffffffffffffffffffff8261273e565b612785868361273e565b95508019841693508086168417925050509392505050565b6000819050919050565b60006127c26127bd6127b884611dc8565b61279d565b611dc8565b9050919050565b6000819050919050565b6127dc836127a7565b6127f06127e8826127c9565b84845461274b565b825550505050565b600090565b6128056127f8565b6128108184846127d3565b505050565b5b81811015612834576128296000826127fd565b600181019050612816565b5050565b601f8211156128795761284a81612719565b6128538461272e565b81016020851015612862578190505b61287661286e8561272e565b830182612815565b50505b505050565b600082821c905092915050565b600061289c6000198460080261287e565b1980831691505092915050565b60006128b5838361288b565b9150826002028217905092915050565b6128ce82611e5a565b67ffffffffffffffff8111156128e7576128e6611c9d565b5b6128f18254612310565b6128fc828285612838565b600060209050601f83116001811461292f576000841561291d578287015190505b61292785826128a9565b86555061298f565b601f19841661293d86612719565b60005b8281101561296557848901518255600182019150602085019450602081019050612940565b86831015612982578489015161297e601f89168261288b565b8355505b6001600288020188555050505b505050505050565b7f4552433732313a207472616e736665722066726f6d20696e636f72726563742060008201527f6f776e6572000000000000000000000000000000000000000000000000000000602082015250565b60006129f3602583611e65565b91506129fe82612997565b604082019050919050565b60006020820190508181036000830152612a22816129e6565b9050919050565b7f4552433732313a207472616e7366657220746f20746865207a65726f2061646460008201527f7265737300000000000000000000000000000000000000000000000000000000602082015250565b6000612a85602483611e65565b9150612a9082612a29565b604082019050919050565b60006020820190508181036000830152612ab481612a78565b9050919050565b7f4f776e61626c653a2063616c6c6572206973206e6f7420746865206f776e6572600082015250565b6000612af1602083611e65565b9150612afc82612abb565b602082019050919050565b60006020820190508181036000830152612b2081612ae4565b9050919050565b7f4552433732313a20617070726f766520746f2063616c6c657200000000000000600082015250565b6000612b5d601983611e65565b9150612b6882612b27565b602082019050919050565b60006020820190508181036000830152612b8c81612b50565b9050919050565b7f4552433732313a207472616e7366657220746f206e6f6e20455243373231526560008201527f63656976657220696d706c656d656e7465720000000000000000000000000000602082015250565b6000612bef603283611e65565b9150612bfa82612b93565b604082019050919050565b60006020820190508181036000830152612c1e81612be2565b9050919050565b600081905092915050565b6000612c3b82611e5a565b612c458185612c25565b9350612c55818560208601611e76565b80840191505092915050565b6000612c6d8285612c30565b9150612c798284612c30565b91508190509392505050565b600081519050919050565b600082825260208201905092915050565b6000612cac82612c85565b612cb68185612c90565b9350612cc6818560208601611e76565b612ccf81611c8c565b840191505092915050565b6000608082019050612cef6000830187611f5a565b612cfc6020830186611f5a565b612d096040830185611ff0565b8181036060830152612d1b8184612ca1565b905095945050505050565b600081519050612d3581611bf3565b92915050565b600060208284031215612d5157612d50611bbd565b5b6000612d5f84828501612d26565b91505092915050565b7f4552433732313a206d696e7420746f20746865207a65726f2061646472657373600082015250565b6000612d9e602083611e65565b9150612da982612d68565b602082019050919050565b60006020820190508181036000830152612dcd81612d91565b9050919050565b7f4552433732313a20746f6b656e20616c7265616479206d696e74656400000000600082015250565b6000612e0a601c83611e65565b9150612e1582612dd4565b602082019050919050565b60006020820190508181036000830152612e3981612dfd565b9050919050565b7f4e487b7100000000000000000000000000000000000000000000000000000000600052601260045260246000fdfea2646970667358221220d9479c7b302cf2acf57ba7c38e8ebab57e007454791484b944795a35fa9d07e264736f6c63430008130033",
  "linkReferences": {},
  "deployedLinkReferences": {}
}